:100000000C944A010C9472010C9472010C947201CC
:100010000C9472010C9472010C9472010C94C00F38
:100020000C9472010C9472010C9472010C94720184
:100030000C9472010C9472010C9472010C94720174
:100040000C940E0F0C9472010C948E0F0C94720190
:100050000C94650F0C9472010C9472010C94720153
:100060000C9446100C9472019C6B98CD98491C22FC
:100070001C1D9C4998499C491C949CD09C49188DF6
:1000800098CD1C949C49C2CD9C4901869CD01C945F
:1000900019861C229C6B420998CD1C1D1C94198644
:1000A0001C22000000000000000098491C1D9C4913
:1000B000C2CD01960000000000000000000000001A
:1000C0000C949C4942099C6B9C491C1D180900001A
:1000D000000000000000188D0D9D42091C94198637
:1000E00098E40196000000000000000098498CD4BC
:1000F0009CD99CD998CD42090196000000000000CF
:1001000000001F1C1F1E1F1E1F1F1E1F1E005EBC87
:10011000E2613FDD83C29C7E20A3FD1F41009D2341
:10012000BE46DB65F88C11AF32CA57E97411000086
:10013000000000000000000000000000000000FFC0
:100140000000000000D2D4D8D0FF000030383A358B
:10015000313A3139004A756E203136203230323131
:10016000000D9D1C949C6B01961C1D0D9D000000B4
:10017000004E1D9C499C6B1C1D019601860D9D0027
:1001800000388601961C1D420901960000000000FF
:10019000000196188D1C1D9C4901860D9D000000D4
:1001A00000388601960D9D00000000000000000050
:1001B0000019865EC51C940D9D0000000000000023
:1001C0000019865EC501860D9D000000000000003C
:1001D0000001969C6B18098CD4984942090196003D
:1001E0000098499C491C9442090D9D9CD91C1D0DE9
:1001F0009D98CD1C2242090D9D9CD91C1D0D9D0072
:10020000001C9498CD0D9D9CD91C1D0D9D000000D7
:1002100000C2CD9C491C2201969CD91C1D0D9D003D
:100220000099CF0086815D80DB0C94A0D99CD90217
:100230000B9CDD0C9D9C6B9E841C22018600009C07
:100240006B1C220186C2CD9C491C949CD001961C3B
:100250001D80DD9C6B00096806041013A08040001F
:100260000000002300260029000404040404040400
:100270000402020202020203030303030301020455
:100280000810204080010204081020010204081018
:100290002000651111241FBECFEFD8E0DEBFCDBF17
:1002A00011E0A0E0B1E0EAECFFE302C005900D929E
:1002B000A034B107D9F724E0A0E4B1E001C01D9259
:1002C000A43FB207E1F711E0CAE4D1E004C02197EE
:1002D000FE010E94AF1EC934D107C9F70E949912CE
:1002E0000C94E31F0C940000909152039111FCCFE9
:1002F00091E090935203909351032FEF209350037A
:1003000010924F03260F20934E0390934D0390912C
:100310004D03880F892B80934D0380914C038130CE
:10032000F9F410924C0380914D038093BB008091AF
:10033000BC0083FDF8CF85EC8093BC008091520314
:100340008130E1F380914F03861710F460914F03E1
:10035000ACE2B3E0ECE0F3E080E0861303C0089584
:1003600085EEEACF9D9191938F5FF7CF982F2091E3
:100370000B0381E0213208F043C0809152038111C8
:10038000FCCF80910A0332E03093520390935103E3
:100390009FEF9093500310924F0320934E03AAEEC9
:1003A000B2E0ECE2F3E090E0291331C010924D038B
:1003B00090914D03880F892B80934D0380914C03BE
:1003C000813049F510924C0380914D038093BB001E
:1003D0008091BC0083FDF8CF85EC8093BC008091B8
:1003E00052038230E1F3809150038F3FB1F080914E
:1003F00050038032A1F080915003803391F084E06B
:100400001092E90210920B031092E80208953D91B8
:1004100031939F5FC9CF85EEE0CF80E0F1CF82E0DE
:10042000EFCF83E0EDCF91E09093E80280930A0351
:100430001092E90210920B03089581E18093E30288
:1004400081E08093E20280E492E0A0E0B0E080935B
:10045000DE029093DF02A093E002B093E1029FB727
:10046000F89482E08093B000E0E7F0E08081826061
:10047000808383E08093B1008DE48093B300109279
:10048000DA021092DB021092DC021092DD029FBFB2
:10049000089508950895482FE62F282F30E08630DC
:1004A00009F459C000F58330E1F1853009F44FC0FB
:1004B0004830E0F14E3010F1443108F063C02E5066
:1004C000310981E090E0A0E0B0E004C0880F991FFE
:1004D000AA1FBB1F2A95D2F728B1EE2309F44FC0FB
:1004E000822B88B908958A30C9F18B30D9F18930CF
:1004F000F9F6809180008F77809380002850310931
:1005000081E090E0A0E0B0E004C0880F991FAA1F2E
:10051000BB1F2A95D2F7E1112EC025B18095822309
:100520002CC09091B0009F7D9093B00081E090E04E
:10053000A0E0B0E004C0880F991FAA1FBB1F4A9516
:10054000D2F72BB1EE23A1F0822B8BB9089594B58D
:100550009F7D94BDEBCF94B59F77FBCF80918000BA
:100560008F7DCACF8091B0008F778093B000C6CFC7
:1005700080958223EACF25B1822B85B90895809595
:100580008223AFCF08951092E7021092E6021092F4
:10059000E90210920B031092520381E08093510301
:1005A00010924C03449A459AE9EBF0E080818E7FEB
:1005B000808380818D7F808388E48093B80085E488
:1005C0008093BC0089E492E09093D9028093D80292
:1005D0008AE492E09093D7028093D6020895880F20
:1005E000991F880F991F05970197F1F708953FB755
:1005F000F89480915E0290915F02A0916002B091A8
:10060000610226B5A89B05C02F3F19F00196A11DD8
:10061000B11D3FBFBA2FA92F982F8827BC01CD014C
:10062000620F711D811D911D42E0660F771F881FAB
:10063000991F4A95D1F708958F929F92AF92BF92DA
:10064000CF92DF92EF92FF926B017C010E94F70242
:100650004B015C01C114D104E104F104B9F00E9422
:10066000F702681979098A099B09683E7340810578
:10067000910580F381E0C81AD108E108F10828EE5D
:10068000820E23E0921EA11CB11CE4CFFF90EF90DC
:10069000DF90CF90BF90AF909F908F9008952FB72D
:1006A000F89460915A0270915B0280915C02909183
:1006B0005D022FBF0895DC011B96ED91FC911C9704
:1006C000309709F009941996ED91FC913097D1F784
:1006D0000895DC0180E0615090F09D919827E92F0A
:1006E000EF70F0E0E35FFE4F2491E92FE295EF70A9
:1006F000F0E0E35EFE4FE491822F8E27ECCF089569
:100700000F931F93CF93DF93FC011081C181D2819E
:10071000F8948981812B89838A81012F0095802318
:100720008A8383E090E00E94EF028981802389839D
:100730008AE090E00E94EF02C881789485E390E01F
:100740000E94EF02C12381E009F480E0DF91CF91A4
:100750001F910F9108951F93CF93DF93FC01108198
:10076000C181D281912F909560FF16C0F8948A8143
:1007700089238A838981812B89838AE090E00E9482
:10078000EF028A81182B1A83789487E390E0DF9137
:10079000CF911F910C94EF02F8948A8189238A8368
:1007A0008981812B898381E490E00E94EF028A8114
:1007B000182B1A83789485E090E0E9CFDF92EF92CE
:1007C000FF920F931F93CF93DF93EC01D62EE42E6D
:1007D00008E010E0FF24F39461E08D2D8F2109F4EF
:1007E00060E0CE010E94AB03FF0C01501109A1F79C
:1007F000E11010C0F894E981FA8191818881809597
:1008000089238183E981FA81928188818095892376
:1008100082837894DF91CF911F910F91FF90EF9099
:10082000DF900895EF92FF920F931F93CF93DF9382
:100830008C017B0140E065E50E94DE03E70188E072
:10084000E80EF11C699140E0C8010E94DE03CE155C
:10085000DF05C1F7DF91CF911F910F91FF90EF90CE
:100860000895FF920F931F93CF93DF93FC011081A4
:10087000C181D281F8948981012F009580238983D9
:1008800078948DE7F82EFA94FF2061F182E090E0F1
:100890000E94EF0288818123B1F3F8948A8180233A
:1008A0008A838981812B8983789480EE91E00E94EC
:1008B000EF02F89489818023898386E490E00E9486
:1008C000EF0288811823C1E009F0C0E078948AE93A
:1008D00091E00E94EF028C2FDF91CF911F910F9139
:1008E000FF900895C0E0F7CF4F925F926F927F9292
:1008F0008F929F92AF92BF92CF92DF92EF92FF9230
:100900000F931F93CF93DF938C017B01EA01FC01CE
:10091000818592850E9431048823D9F1B701F801BD
:10092000818592850E94120440E06EEBF80181857A
:1009300092850E94DE036E015E01F9E0AF0EB11CEC
:100940007E01F8018184928488E0682E712C512CFC
:1009500044244394C4010E94800381115428440C10
:10096000F1E06F1A7108B1F7F70151927F01AE16ED
:10097000BF0639F7F801818592850E9431048130E4
:1009800041F4F60181916F01811105C0EE15FF055B
:10099000C1F790E008C068E0CE010E94690391E0D1
:1009A00028852813F6CF892FDF91CF911F910F91C2
:1009B000FF90EF90DF90CF90BF90AF909F908F907F
:1009C0007F906F905F904F900895CF93DF93CDB756
:1009D000DEB729970FB6F894DEBF0FBECDBFAE01CC
:1009E0004F5F5F4F0E947404882331F08D818F33F5
:1009F000A9F020F48F31A1F080E007C08F3521F0FD
:100A00008F37D1F78CE001C08BE029960FB6F894B0
:100A1000DEBF0FBECDBFDF91CF9108958AE0F5CF45
:100A200089E0F3CFFC01908190539A3008F090E078
:100A3000818180532AE0929F800D11240895DC016A
:100A400050E0E2E0F1E081E0861730F49491490F44
:100A5000511D8F5F3196F8CF633038F0CD01837030
:100A60009927892B11F44F5F5F4F9D012D5F3F4FF9
:100A700036952795369527956DE671E0A69FC001BE
:100A8000A79F900DB69F900D11240197820F931F81
:100A9000840F951F08954F925F926F927F92BF923D
:100AA000CF92DF92EF92FF920F931F93CF93DF933A
:100AB000FC01B584B11010C040E0842FDF91CF91CC
:100AC0001F910F91FF90EF90DF90CF90BF907F909C
:100AD0006F905F904F900895EC018685882361F1B7
:100AE0000E944F03488059806A807B80CC80DD80E3
:100AF000EE80FF808B019C01041915092609370936
:100B00000C151D052E053F05B8F24C854423E9F070
:100B10008B019C010C191D092E093F094C0C5D1C11
:100B20006E1C7F1C4C145D046E047F0440F44882EC
:100B300059826A827B82C1CF0E94F702D3CF4016CE
:100B400051066206730650F3F2CF1D864B2DB5CFCA
:100B5000CF93DF93EC018E85882349F00E944F03E9
:100B6000688379838A839B83DF91CF9108950E9464
:100B7000F702F6CF85ED8093BC008091BC0084FD28
:100B8000FCCF1092520308952091D201260F3327F3
:100B9000331F21323105ECF420915203FC0190E027
:100BA00080E0243069F082E00895A091D201219183
:100BB000AC014E545E4FA40FB52FB11D2C9301967E
:100BC000861798F38091D201680F6093D20180E07C
:100BD000089581E008950895E091E7028091E6028A
:100BE000E81730F4F0E0E45FFC4F808190E0089576
:100BF0008FEF9FEF08959091E7028091E6022FEF2B
:100C00003FEF981748F4E92FF0E0E45FFC4F2081B4
:100C100030E09F5F9093E702C90108958091E6025A
:100C20009091E702891B990B0895CF92DF92EF9282
:100C3000FF920F931F93CF93DF937C01CB018A0127
:100C40002091E802222389F0EB016B01C40ED51E2E
:100C5000CC15DD0569F06991D701ED91FC9101900A
:100C6000F081E02DC7010995F3CF642F0E94C405E0
:100C7000C801DF91CF911F910F91FF90EF90DF900E
:100C8000CF900895CF93DF931F92CDB7DEB76983DE
:100C90002091E8022223F9F020910B03203258F032
:100CA00021E030E0FC013383228390E080E00F906C
:100CB000DF91CF9108958091E902E82FF0E0E651AD
:100CC000FD4F998190838F5F8093E90280930B039E
:100CD00081E090E0ECCF61E0CE0101960E94C40576
:100CE000F7CF81E00C94B6010F931F93CF93DF935E
:100CF000082F162FCEE3D4E08E810E9413028C8140
:100D00009D81DC01ED91FC910190F081E02D602F3F
:100D100009958C819D81DC01ED91FC910190F08120
:100D2000E02D612F09958C819D81DF91CF911F91DD
:100D30000F910C947106EF92FF920F931F93CF9334
:100D4000DF93EC01E62EF42E0881198189A10E941F
:100D50001302D801ED91FC910190F081E02D6E2DF0
:100D6000C801099588819981DC01ED91FC91019080
:100D7000F081E02D6F2D099588819981DF91CF91C8
:100D80001F910F91FF90EF900C9471061F93CF93DA
:100D9000DF93EC01142F8EA1482F4F7E662399F02C
:100DA000841731F04EA360E0CE0102960E949B06AC
:100DB000112321F084EF91E00E94EF02CE01DF9138
:100DC000CF911F91089540618417C1F34EA360E055
:100DD000CE0102960E949B06F1CF90E080E008953C
:100DE000382FAB0121E0811120E0832F6DE00E94BC
:100DF0007B1E281B230F4370552781E0452B09F0EC
:100E000080E091E0223009F090E0899F902D11243C
:100E1000945E220F4CEC5EEE6BEB73E004C07595B4
:100E20006795579547952A95D2F74370892F840F78
:100E30000895809102012AE0622F0E947B1EE92F13
:100E4000F0E0EE0FFF1FEF5DFD4F45915491A6EAD4
:100E5000B1E01B965C934E931A970E947B1EE92F7C
:100E6000F0E0EE0FFF1FEF5DFD4F85919491199615
:100E70009C938E9318978091A5010E947B1EE92F69
:100E8000F0E0EE0FFF1FEF5DFD4F45915491179677
:100E90005C934E9316970E947B1EE92FF0E0EE0FB5
:100EA000FF1FEF5DFD4F8591949115969C938E9356
:100EB00014978091A4010E947B1EE92FF0E0EE0FB1
:100EC000FF1FEF5DFD4F4591549113965C934E9338
:100ED00012970E947B1EE92FF0E0EE0FFF1FEF5DDF
:100EE000FD4F859194918D939C9308959091CC02A0
:100EF00091958823D9F0292F30E09923F9F080913A
:100F0000800080688093800030938900209388005F
:100F100061110FC02FEF30E08091800080628093DC
:100F2000800030938B0020938A0008952FEF30E0EB
:100F3000E6CF292F30E09111EFCF08956111FDCF59
:100F4000E9CF0F931F93CF93DF93EC01062F14E1AA
:100F5000E881EE0F8091EF04E81708F18091D10449
:100F60009091D204402F612F02960E949B06E88147
:100F7000EE0FEF5F8091EF04E817C8F08091D10485
:100F80009091D204402F612F02960E949B061F5F12
:100F90001831F1F6DF91CF911F910F910895F0E094
:100FA000EE0FFF1FE653FB4F87819085DBCFF0E00C
:100FB000EE0FFF1FE653FB4F87819085E3CF8091B3
:100FC000D502843071F484E694E00E94A8058091F3
:100FD00006018F5F883018F48093060108951092FF
:100FE000060108950F931F93CF93DF93EC011882AE
:100FF00019821A821B821C821D821E821F82188601
:1010000019861A861B8681E08C871D868E8741157E
:1010100051056105710579F04C835D836E837F8393
:101020008D87CE010E94A80581E08E87DF91CF9148
:101030001F910F9108950E944F03088119812A8101
:101040003B81601B710B820B930B688779878A87C2
:101050009B87EACF862F642F0E9474011092E702CB
:101060008093E60208951F93CF93DF93182FCEE36A
:10107000D4E08E810E9413028C819D81DC01ED9170
:10108000FC910190F081E02D612F099580E00E9494
:10109000B6016E817F8141E050E08C819D810E948C
:1010A0002A088C819D81DC01ED91FC910284F385FD
:1010B000E02D0995DF91CF911F910895CF93C82F0F
:1010C00087E10E9474066C2F606A88E10E947406B2
:1010D0008EE2CF910C9433081F93CF93DF93182F98
:1010E000CEE3D4E08E810E9413028C819D81DC01CD
:1010F000ED91FC910190F081E02D612F099580E048
:101100000E94B6016E817F8142E050E08C819D811A
:101110000E942A088C819D81DC01ED91FC91028462
:10112000F385E02D0995182F8C819D81DC01ED91CF
:10113000FC910284F385E02D099520E0382FC90148
:10114000812BDF91CF911F910895DF92EF92FF9253
:101150000F931F93CF93DF9388E60E94130260E002
:101160008EEB94E00E9442068EEB94E00E947106A2
:1011700047E050E068E670E08EEB94E00E942A08B9
:101180008EEB94E00E94FB058F77282F30E094E0EF
:10119000359527959A95E1F7922F990F990FF22E91
:1011A000F91AFF0CF80E8EEB94E00E94FB059C01EF
:1011B00044E0359527954A95E1F72F703327922F14
:1011C000990F990FE22EE91AEE0CE80E8EEB94E0DF
:1011D0000E94FB059C0154E0359527955A95E1F74F
:1011E0002F703327922F990F990FD22ED91ADD0C19
:1011F000D80E8EEB94E00E94FB058EEB94E00E94EB
:10120000FB059C0164E0359527956A95E1F72F7001
:101210003327922F990F990F022F091B000F080FE8
:101220008EEB94E00E94FB059C0174E035952795B8
:101230007A95E1F72F703327922F990F990F122F7C
:10124000191B110F180F8EEB94E00E94FB059C01F7
:10125000E4E035952795EA95E1F72F703327922F33
:10126000990F990FC22FC91BCC0FC80FD0E0D09295
:10127000A401E092A501F0920201402F612FCE015E
:101280000E941F05069667E070E00E94871E80930B
:1012900063020093AF021093B002C053D84FD093B3
:1012A000B202C093B102DF91CF911F910F91FF90D5
:1012B000EF90DF90089588E60E9413026FE08EEBB6
:1012C00094E00E9442068EEB94E00E94710661E079
:1012D00088E60E9474011092E7028093E6028EEB8A
:1012E00094E00E94FB0508951F93CF93DF93EC01D8
:1012F00088E60E94130260E08EEB94E00E944206B2
:101300002D811AE0822F612F0E947B1E682F660FAD
:10131000680F660F620F8EEB94E00E9442062C81EC
:10132000822F612F0E947B1E682F660F680F660F49
:10133000620F8EEB94E00E9442062B81822F612F78
:101340000E947B1E682F660F680F660F620F8EEB80
:1013500094E00E94420688814A81698190E00E945F
:101360001F05069667E070E00E94871E682F8111B6
:1013700001C067E08EEB94E00E9442062A811AE0E9
:10138000822F612F0E947B1E682F660F680F660FE9
:10139000620F8EEB94E00E9442062981822F612F1A
:1013A0000E947B1E682F660F680F660F620F8EEB20
:1013B00094E00E9442062881822F612F0E947B1EAA
:1013C000682F660F680F660F620F8EEB94E00E9425
:1013D00042068EEB94E00E9471060E945B09C82FC2
:1013E00088E60E9413026FE08EEB94E00E944206B2
:1013F0006C2F6F778EEB94E00E9442068EEB94E0A8
:10140000DF91CF911F910C947106BF92CF92DF9222
:10141000EF92FF920F931F93CF93DF93EC01B62EC1
:10142000C72E8D85811105C0CE010E943104811126
:101430000EC01B861D861C8680E0DF91CF911F9118
:101440000F91FF90EF90DF90CF90BF90089540E014
:1014500060EFCE010E94DE0301E0E12CD12C11E00F
:10146000CE010E948003F82ECE010E94800391E0FD
:10147000F91218C0813099F51134D8F2DB86D110F9
:1014800002C081E08D878B81882399F22396EB2D12
:10149000FC2DCF01089629912193E817F907D9F778
:1014A00081E0CBCFEE2DF0E0F8120FC08B8518173E
:1014B000A0F4DE01AE0FBF1F13968C91802379F448
:1014C000F12C193008F41C87D12EEC0FFD1F8381FD
:1014D000902F9095892383830AC08113F1CFFE0159
:1014E000EE0DF11D8381802B8383FF24F3946F2DF8
:1014F000CE010E94AB031F5F000F11F4E39401E0E3
:1015000087E08E1508F0ACCFB7CFDF92EF92FF9255
:101510000F931F93CF93DF937C018B01D42EDC01BB
:101520001996ED91FC911386158614861286118604
:10153000108617821682158214821382C0E0B801C9
:10154000F701818592850E94050AD82F882329F00A
:10155000DC1629F0CF5FDC1690F7D0E009C067E019
:10156000C8010E946903D80117969C918913F2CF94
:101570008D2FDF91CF911F910F91FF90EF90DF9012
:101580000895CF93C1E0C093040186E494E00E94E3
:101590004B058111C0930101809102018F5F8093FF
:1015A00002018C33B0F08091A501109202018F5F8F
:1015B0008093A501809100018F5F809300018A30A4
:1015C00040F08091D502843021F0109200010E94F9
:1015D000A5088091A5018C33D0F11092A501C0918E
:1015E000A401CF5FC093A40180910101882329F158
:1015F00080910301813031F08230F9F4C93038F143
:10160000C731D8F40E941D021092010180E197E2D7
:10161000A0E0B0E080934A0490934B04A0934C0464
:10162000B0934D0481E0809352048093530486E488
:1016300094E00E94A80510925204C83140F0109224
:10164000A4018091D502843011F00E94A508CF91A9
:101650000C9419076091B0026150770B84E0660F1B
:10166000771F8A95E1F76F597E4F40E150E085E79B
:1016700092E00E94A31C6091630286E1689FB00122
:10168000112468597F4FE091B002F0E0E55EFE4F13
:10169000808190E0880F991F46E150E089589D4F66
:1016A0000E94A31C3091AF02832F64E60E947B1E30
:1016B000892F2AE0622F0E947B1EE82FF0E0EE0FB8
:1016C000FF1FEF5DFD4F85919491A5E6B2E01B965B
:1016D0009C938E931A97832F0E947B1EE92FF0E034
:1016E000EE0FFF1FEF5DFD4F859194911D969C932A
:1016F0008E931C9708958093D302E5E6F2E08AE486
:10170000DF011D928A95E9F781E08093E40210924F
:10171000E5028FEA94E00E94A80585E594E00C9428
:10172000A805CF93DF9300D000D000D0CDB7DEB7AF
:1017300085E080930501209102013091A50140913F
:10174000A4015091AF026091B0028091B1029091DA
:10175000B202803D77E0970710F0805D9740898363
:101760006A835B834C833D832E83CE0101960E9466
:1017700074090E94A50885E594E00E94A80590E000
:1017800080E00E94CB1D60910301861721F090E05C
:1017900080E00E94D31D81E090E00E94CB1D60910B
:1017A0000801861721F081E090E00E94D31D81E0BE
:1017B0008093E40280E00E947B0B26960FB6F8949B
:1017C000DEBF0FBECDBFDF91CF9108958091D502CE
:1017D000843059F084E08093D5028093D302109234
:1017E000060184E694E00C94A8050C94910B80917A
:1017F000D5028430A9F08091D3022091070130E016
:10180000815008F483E0A901082E02C05595479540
:101810000A94E2F740FFF4CF8093D3020C947B0B41
:1018200084E694E00E94A805E0910601E83008F003
:101830005DC0F0E0E25EF34F0C94AF1E260C370C57
:10184000400C520C5B0C640C670C700C8091B10264
:101850009091B2020197853E27E0920728F090937D
:10186000B2028093B102089588EF97E0F8CF80919B
:10187000B002815019F08093B00208958CE0FBCF44
:101880006091B1027091B2028091B0020E94F006A4
:101890009091AF02915019F09093AF020895809308
:1018A000AF0208958091A401815018F08093A401A3
:1018B000089587E1FBCF8091A501815018F08093B6
:1018C000A50108958BE3FBCF10920201089580914A
:1018D0000301815018F080930301089582E0FBCF4B
:1018E0008091080191E089278093080108958091F3
:1018F000D3022091070130E08F5F843008F080E050
:10190000A901082E02C0559547950A94E2F740FFB9
:10191000F3CF8093D3020C947B0B8091D50284305B
:1019200011F00C94770C84E694E00E94A805E091F5
:101930000601E83008F066C0F0E0EF55F34F0C9474
:10194000AF1EA90CBA0CC40CD80CE30CEE0CF10CB5
:10195000FC0C8091B1029091B2020196893F27E080
:10196000920728F49093B2028093B102089585EE15
:1019700097E0F8CF8091B0028F5F8D3018F480939C
:10198000B002089581E0FBCF6091B1027091B20284
:101990008091B0020E94F0069091AF029F5F89177C
:1019A00018F09093AF02089581E08093AF020895FC
:1019B0008091A4018F5F883118F48093A401089569
:1019C0001092A40108958091A5018F5F8C3318F4C3
:1019D0008093A50108951092A50108951092020127
:1019E0000895809103018F5F833018F48093030181
:1019F00008951092030108958091080191E08927CC
:101A0000809308010895AF92BF92CF92DF92EF9238
:101A1000FF920F931F93CF93DF937C01C22F50E06F
:101A2000CB01FA01B696EE0DFF1D8A01D02FC0172B
:101A300008F459C06C010196219158013FEFA31A97
:101A4000B30AD6013C91321709F44BC08C2F90E0B9
:101A5000FC01E41BF50BE60FF71F8E0D9F1D208187
:101A6000FC0186A1281303C0C150CD1778F7D70118
:101A70001296AD90BC90139793968C910E9413028E
:101A800060E86D0FD501ED91FC910190F081E02DA2
:101A9000C5010995F70182819381D0E0C01BD10B6C
:101AA0002196DC01ED91FC910280F381E02DAE01E5
:101AB000B6010995F701828193810E947106C801E0
:101AC0008696AE01B6018E0D9F1DDF91CF911F91BD
:101AD0000F91FF90EF90DF90CF90BF90AF900C945C
:101AE000DA1F8501A3CFDF91CF911F910F91FF9056
:101AF000EF90DF90CF90BF90AF9008956F927F925C
:101B00008F929F92AF92BF92CF92DF92EF92FF920D
:101B10000F931F93CF93DF93CDB7DEB768970FB6C0
:101B2000F894DEBF0FBECDBF8C01461B4F5F88E12E
:101B3000F801B696DE01119601900D928A95E1F7B3
:101B4000962EE62EF12C4E0D5F2D511D83E0C82EF2
:101B5000D12C62E070E0892D90E084179507CCF5D8
:101B6000A92DAF708A2EEA2FE695E695EC5EA92D99
:101B7000A370B0E0AA0FBB1F56010A2E01C0AA0C29
:101B80000A94EAF766246394712C6C0E7D1E6E0E27
:101B9000711CF301BA2CB094B081BB223B0102C08E
:101BA000660C771CAA95E2F7A620AB28A082E2E09B
:101BB000E80DA1E0B0E0AC0FBD1FAE0FB11DFD01FF
:101BC0008E199F09D901A80FB91F8C918083939416
:101BD000C2CF27E142E0BE016D5F7F4FC8010E9486
:101BE000030DC80168960FB6F894DEBF0FBECDBFD7
:101BF000DF91CF911F910F91FF90EF90DF90CF90E9
:101C0000BF90AF909F908F907F906F9008956F924C
:101C10007F929F92AF92BF92CF92DF92EF92FF920C
:101C20000F931F93CF93DF931F92CDB7DEB75B0166
:101C300050E4C52E51E0D52E6AECE62E64E0F62E77
:101C4000082F10E0000F111F0B591D4FE5E09E2ECD
:101C5000B092A101A092A00190E080E030E020E0ED
:101C6000220F331FF601E81BF90B4785442311F0BF
:101C70002F5F3F4F01968031910591F7F8018191D7
:101C800091918F01822793278A219B218227932775
:101C90009093A3018093A201712C612C662D9091E9
:101CA000A201F601E60DF71D892F817080838091D6
:101CB000A00180FF14C08091EF0490FF48C09816E7
:101CC00008F441C08091D1049091D2042091CC02BB
:101CD00029839E012F5F3F4F462F0E947E0D8091EA
:101CE000A2019091A301969587959093A30180936B
:101CF000A2018091A0019091A10196958795909362
:101D0000A1018093A001FFEF6F1A7F0A80E168169E
:101D1000710421F69A94E0E1CE0ED11CF2E0EF1AA4
:101D2000F1088FEF981294CF0F90DF91CF911F9110
:101D30000F91FF90EF90DF90CF90BF90AF909F906A
:101D40007F906F900895F70181899289BFCF98168F
:101D500030F08091D1049091D2041982BACFF7016A
:101D600081899289FACFCF93DF93C82F853081F490
:101D7000E091E5026FEF7FEFE63041F0F0E0EE0F2B
:101D8000FF1FEB5AFD4F85919491BC0180E006C086
:101D90006FEF7FEF8091E502CC23C1F30E94070E25
:101DA0002091E5022F5F2093E50230E0C53069F015
:101DB000C650DD0BC217D3075CF41092E50281E038
:101DC0008093E402DF91CF910895C6E0D0E0F2CF96
:101DD0001092E402F7CFCF93C82F8091E4028823BA
:101DE00079F080910401882359F08CE0E6EAF1E073
:101DF000A5E6B2E001900D928A95E1F710920401F8
:101E000081E994E00E944B05882331F080E0C11104
:101E100085E0CF910C94B30ECF9108951F920F924D
:101E20000FB60F9211248F939F93AF93BF9380911E
:101E30005A0290915B02A0915C02B0915D02019602
:101E4000A11DB11D80935A0290935B02A0935C0286
:101E5000B0935D028091590293E0980F9D37F0F4A2
:101E60009093590280915E0290915F02A09160026E
:101E7000B09161020196A11DB11D80935E02909305
:101E80005F02A0936002B0936102BF91AF919F91F6
:101E90008F910F900FBE0F901F9018958A578093C7
:101EA000590280915A0290915B02A0915C02B0911C
:101EB0005D020196A11DB11D80935A0290935B02B1
:101EC000A0935C02B0935D02CDCF1F920F920FB62C
:101ED0000F9211248F939F93EF93FF939091580249
:101EE00080915702981789F0E0915702F0E0E95C81
:101EF000FD4F9081809157028F5F8093570280320F
:101F000010F0109257029093C600FF91EF919F91AD
:101F10008F910F900FBE0F901F9018951F920F92E8
:101F20000FB60F9211242F938F939F93EF93FF93EC
:101F30008091C00082FF0CC08091C600FF91EF919C
:101F40009F918F912F910F900FBE0F901F9018951A
:101F50009091C600809136028F3380F480913602D2
:101F60008F5F20913502281749F3E0913602F0E0A7
:101F7000EB50FE4F908380933602E0CF80E0F1CFAC
:101F80001F920F920FB60F9211242F933F934F93EE
:101F90005F936F937F938F939F93AF93BF93809142
:101FA000E2028823A9F04091DA025091DB026091AD
:101FB000DC027091DD028091DE029091DF02A0913F
:101FC000E002B091E102481759076A077B0728F53C
:101FD0003091E302383080F529B181E090E0A0E053
:101FE000B0E004C0880F991FAA1FBB1F3A95D2F713
:101FF000822B89B98091DA029091DB02A091DC02F8
:10200000B091DD020196A11DB11D8093DA0290937B
:10201000DB02A093DC02B093DD02BF91AF919F91F0
:102020008F917F916F915F914F913F912F910F9081
:102030000FBE0F901F9018953E3098F423B1832F58
:102040008850990BAC0181E090E0A0E0B0E004C0C2
:10205000880F991FAA1FBB1F4A95D2F7822B83B9FD
:10206000C9CF343138F626B1832F8E50990BAC018D
:1020700081E090E0A0E0B0E004C0880F991FAA1FA3
:10208000BB1F4A95D2F7822B86B9B4CF1F920F920D
:102090000FB60F9211242F933F934F935F936F933B
:1020A0007F938F939F93AF93BF93EF93FF93809111
:1020B000B900887F803609F44AC0F0F5883209F407
:1020C000A7C018F5803109F49BC0B8F4882309F43F
:1020D000F9C0883009F494C0FF91EF91BF91AF919E
:1020E0009F918F917F916F915F914F913F912F9130
:1020F0000F900FBE0F901F901895883109F488C07B
:10210000803251F78093500314C0803409F49DC08D
:1021100040F48033B9F38833F9F68093500385ECAB
:10212000B0C0803509F485C0883509F496C088347C
:1021300099F60E94BA05D0CF883909F48CC038F5D9
:10214000883729F050F4883611F0803729F683E07B
:10215000809352031092F40157C0883809F47BC071
:10216000803919F0803809F0B7CF8091F4018032BE
:1021700008F071C0E091F40181E08E0F8093F401CA
:102180008091BB00F0E0EC52FE4F80833DC0803B6D
:1021900039F0E0F4803A09F479C0883A09F09CCF2C
:1021A00084E0809352031092D3011092D201E09107
:1021B000D802F091D90209958091D20181110FC006
:1021C00081E08093D2011092B20109C0803C09F4F1
:1021D000A6CF883C09F4A3CF883B09F07DCFE091DE
:1021E000D30181E08E0F8093D301F0E0EE54FE4FD7
:1021F00080818093BB009091D3018091D20129C04E
:1022000080914D038093BB0085EC8093BC0064CF2C
:1022100090914F0380914E03981758F5E0914F032A
:1022200081E08E0F80934F03F0E0E45DFC4F8081EE
:10223000E9CFE0914F0381E08E0F80934F038091AF
:10224000BB00F0E0E45DFC4F808390914F038091F0
:102250004E039817C8F285E8D8CFE0914F0381E08C
:102260008E0F80934F038091BB00F0E0E45DFC4F44
:1022700080838091510381115CCF81E080934C0376
:1022800084EA8093BC001092520326CF85EC8093A1
:10229000BC00109252038091F401803230F4E0913E
:1022A000F401F0E0EC52FE4F10826091F40170E016
:1022B000E091D602F091D70284ED91E00995109259
:1022C000F4010ACF1092500334CFCF92DF92EF92F5
:1022D000FF92CF93DF93CEEBD4E01B821A8288EE7D
:1022E000C82E83E0D82EE12CF12CCC82DD82EE8248
:1022F000FF8282E391E099838883EAECF4E0D18362
:10230000C08380EA96E8A1E0B0E082839383A4834F
:10231000B58387E0868348E853E160E070E08FEAA8
:1023200094E00E94F2074AEF50E060E070E080EA3B
:1023300094E00E94F20747E450E060E070E081E939
:1023400094E00E94F20744EF51E060E070E082E820
:1023500094E00E94F20744E650E060E070E083E71A
:1023600094E00E94F20740E355E760E070E084E605
:1023700094E00E94F20748EA51E660E070E085E5EB
:1023800094E00E94F20740E050E0BA0186E494E055
:102390000E94F207EEE3F4E0D583C48380E690E088
:1023A00097838683E4ECF3E085E1848785E090E021
:1023B0009583848312868AE08387E7EBF3E08EEFD0
:1023C00090E091838083C282D382E482F5828AEF97
:1023D00090E0978386832DE83CE03287218714863E
:1023E0001386EAEAF3E023E531E031832083C282F9
:1023F000D382E482F5829783868387EF9BE092877E
:10240000818714861386EDE9F3E08DEF91E09183E7
:10241000808380E991E0A0E0B0E082839383A4838D
:10242000B58384EF91E0978386838FED97E0928761
:10243000818786EE9BE09487838755985D98E2E8D4
:10244000F2E0E491A1E8B3E0EC93EEE6F2E0E4918F
:10245000F0E0EE0FFF1FE15AFD4F85919491129627
:102460009C938E9311971B961C921B971D961C9202
:102470001D971C961C921C971A961C921A971996D7
:102480001C92199718961C92189717961C921797DA
:1024900016961C92169715961C92159714961C92D8
:1024A000149713961C92139756985E98E3E8F2E0FF
:1024B000E4911E96EC931E97EFE6F2E0E491F0E0D3
:1024C000EE0FFF1FE15AFD4F8591949150969C931A
:1024D0008E931F9759961C9259975B961C925B9707
:1024E0005A961C925A9758961C92589757961C9237
:1024F000579756961C92569755961C9255975496F8
:102500001C92549753961C92539752961C92529732
:1025100051961C92E3E5F3E0168A158A118215A6FE
:1025200014A6108EDF91CF91FF90EF90DF90CF90A7
:102530000895CF93DF93CDB7DEB7EB970FB6F8943E
:10254000DEBF0FBECDBFF89482E880937A0083E0AF
:1025500084BD85BD80916E00816080936E0081E0B6
:10256000809380009BE0909381008093B00084E092
:102570008093B1001092C10078940E94C30261E080
:1025800088E10E9474066AE070E080E090E00E94BA
:102590001C0367E187E00E9474066AE070E080E057
:1025A00090E00E941C0369E283E10E94740669E8DE
:1025B00084E10E94740662E085E10E94740660E096
:1025C00086E10E94740661E083E00E94740665E083
:1025D00084E00E947406809144040E94130280915A
:1025E000420490914304DC01ED91FC910190F08153
:1025F000E02D68E009958091420490914304DC014C
:10260000ED91FC910190F081E02D6FEF09958091A3
:10261000420490914304DC01ED91FC910190F08122
:10262000E02D60E0099580914204909143040E945E
:10263000710663E08FE00E94740661E082E00E9410
:102640005E0863E087E00E945E0860E08BE00E9425
:102650005E0860E78AE00E945E0864E08CE00E9409
:102660005E0860E08EE00E945E0860E081E10E940A
:102670005E0860E780E10E945E0860E082E10E94FF
:102680005E0860E08EE10E945E0860E78DE10E94D6
:102690005E0860E08FE10E945E0869E280E00E94CF
:1026A0005E086AE070E080E090E00E941C0362E057
:1026B00088E10E9474066AE070E080E090E00E9489
:1026C0001C0389E290E09093450480934404809138
:1026D000D00483FDBEC0982F98609093D00480FDF5
:1026E0000E94C3028091CA049091CB048E5B9440F7
:1026F00009F52091CC043091CD044091CE04509145
:10270000CF042115310541055105A1F060E074E2C7
:1027100084EF90E00E94E51DCA01B9016051710982
:102720008109910922E030E040E050E00E94E51D7F
:102730002093B8001092EF0420E6B22E3AECE32E7C
:1027400034E0F32E43E1C42E41E0D42E8B2D0E94C1
:1027500013028091CA049091CB040E9471068111EA
:1027600039C0E8E6BE16B1F1FBE6BF1699F185E483
:1027700090E00E94B51E8C018091CA049091CB0418
:10278000D80113969C938E9312979396BC9293972D
:102790001196DC92CE929596FC92EE9294974EE131
:1027A00050E06DE271E0C80186960E94A31CE091A2
:1027B000EF0481E08E0F8093EF04F0E0EE0FFF1F37
:1027C000E653FB4F108707836AE070E080E090E0FB
:1027D0000E941C03B394B0E7BB12B8CF8091D00421
:1027E00082FF37C08BE60E9413028091CA04909149
:1027F000CB04DC01ED91FC910190F081E02D65EAC4
:1028000009958091CA049091CB04DC01ED91FC9173
:102810000190F081E02D6AE509958091CA049091BC
:10282000CB040E947106811114C001ED14E08DEDFE
:10283000E82E84E0F82EF801819191918F014EE10C
:1028400050E06DE271E086960E94A31CE016F1064E
:1028500091F710926202AE014F5F5F4F7A0110E173
:10286000E0916202E63008F057C08091EF04E8176B
:10287000D8F18091D1049091D204DC0196962C91EC
:102880002E7F298320E040E0B7010E94030DE091F4
:1028900062028091EF04E81778F18091D104909161
:1028A000D204DC01ED91FC910190F081E02D40E03B
:1028B00061E00995E09162028091EF04E81720F150
:1028C0008091D1049091D204F701212F11922A9581
:1028D000E9F797014FE060E00E947E0D809162026F
:1028E0008F5F80936202BCCFF0E0EE0FFF1FE653D4
:1028F000FB4F87819085C1CFF0E0EE0FFF1FE653BD
:10290000FB4F87819085CDCFF0E0EE0FFF1FE653A0
:10291000FB4F87819085D8CF86E08093E50260E009
:1029200083E00E94740660E082E10E945E0881E01C
:1029300090E090933F0480933E0483E090E0909376
:1029400041048093400461E381E00E945E0863E0FB
:1029500088E10E9474066AE070E080E090E00E94E6
:102960001C0366E08EE10E945E0860E18DE10E943A
:102970005E0863E08BE00E945E0860E48AE00E94EB
:102980005E0860E087E00E945E0866E888E10E94D9
:1029900074068EE20E943308682F606186E00E9410
:1029A0005E0860E085E00E945E0864E08CE00E94C2
:1029B0005E080E94C30288E60E9413028EEB94E038
:1029C0000E9471060E945B0990E0880F892F881F82
:1029D000990B892B09F452C04BE050E065E571E09A
:1029E000C7010E94A31CCE010A960E941205898B82
:1029F000E981E154E33120F50E2E000CFF0BED5F71
:102A0000FA4E0C94AF1EE11520152015F515201572
:102A1000DF15201520152015161520152015E81591
:102A2000F315F115201520152015EF158A81813633
:102A300009F4C1C08B818E3609F0BFC086E08A8B55
:102A4000CE0105960E9412058B8B48E050E06CE4A5
:102A500071E0C7010E94A31CC7010E9412058C8B64
:102A6000CE0104960E9412058D8BCE0107960E941E
:102A700012058E8BCE0141960E9474090E94C10AF4
:102A80000E942A0B219A2998229A2A983B9A88B167
:102A900088B941E8C42E43E0D42E03E513E051E8A1
:102AA000A52E53E0B52E69E0662E772473947BE063
:102AB000572EEFE54E2ED8011A96DC92CE9219973A
:102AC00017961C92179718961C9218971C9213969B
:102AD0006C92139714967C92149715967C92159786
:102AE00016967C92F6011386158614861286118638
:102AF000108617821682158214821382B701D801BC
:102B000019968D919C910E94050A882309F478C03A
:102B100067E0C7010E94690398858913EFCFF80128
:102B200087818F5F87838981883231F008F05FC0A9
:102B3000803111F0823211F7D80118968C911897D4
:102B40008F5F18968C9318978C91811123C01996DA
:102B50008D919C910E943104B701F8018185928585
:102B60000E94120440E064EBD80119968D919C916B
:102B70000E94DE03F801818592850E948003982ED1
:102B8000D80119968D919C910E943104911002C038
:102B9000F80170828981803189F1B701C8010E94F2
:102BA000E504D80113969C911397981708F0A6CFC7
:102BB00013968C93A3CF81E042CF87E040CF82E091
:102BC0003ECF8B81823711F484E039CF88E037CF54
:102BD0008B81823711F483E032CF85E030CF89E0FA
:102BE0002ECF8AE02CCF8BE02ACF8CE028CF8B33FE
:102BF00009F4A2CF823409F081CF9ECF8CE0D1CFEF
:102C000080900701912C959487948092070140E071
:102C1000BE01655D7F4FC8010E94850A882309F4C3
:102C2000B3C080E8880D809307018BA5803109F43B
:102C300067C0A701BE01655D7F4FC8010E94740493
:102C4000882309F45DC08D818F3509F459C04D8208
:102C5000F801818592850E943104BE01655D7F4F38
:102C6000D80119968D919C910E94120440E06EE467
:102C7000F801818592850E94DE0340E06B81D801D6
:102C800019968D919C910E94DE0340E06C81F801C1
:102C9000818592850E94DE038BA5803141F040E062
:102CA0006D81D80119968D919C910E94DE03F801E7
:102CB000818592852681222309F10E94310488238F
:102CC000F9F0BE01655D7F4FD80119968D919C91F9
:102CD0000E941204F801408168E4818592850E9477
:102CE000DE03D8018C91811131C064E170E080E095
:102CF00090E00E941C03F801818592850E943104B6
:102D0000D80113965C92139717968C918230D0F16C
:102D1000912CF80187819816A8F583818C3091F168
:102D2000492DB701C8010E94850A8981803141F18E
:102D3000B701C8010E94E504D80113969C9113972E
:102D4000981710F413968C939394E3CFF801818134
:102D5000882321F060E082810E944B0264E170E0F0
:102D600080E090E00E941C03D80111968C9111978D
:102D7000882309F261E012968C910E944B02BBCF2E
:102D80008CE0DACFF8011482FEE0CF0ED11C095E90
:102D90001F4FA016B10609F08ECE8091070190E07A
:102DA00024E0959587952A95E1F7809307018FEFA9
:102DB00093E00E94CB1D8A3509F421C16AE58FEFAB
:102DC00093E00E94D31D6091030190E080E00E9497
:102DD000D31D6091080181E090E00E94D31D8DE039
:102DE000E7EBF3E0D70101900D928A95E1F7A0910E
:102DF000D103A83078F481E08A0F8093D1038DE06D
:102E00008A9FD0011124AE52BC4FF70101900D9260
:102E10008A95E1F78DE0EAEAF3E0DE015196019050
:102E20000D928A95E1F7A091D103A83080F481E05A
:102E30008A0F8093D1038DE08A9FD0011124AE5276
:102E4000BC4FFE01719601900D928A95E1F78DE0DD
:102E5000EDE9F3E0DE015E9601900D928A95E1F7CF
:102E6000A091D103A83080F481E08A0F8093D10330
:102E70008DE08A9FD0011124AE52BC4FFE017E9698
:102E800001900D928A95E1F71AE0C12ED12C0CE940
:102E9000202E00ED302E8091E402882341F08091B5
:102EA000D5028093D4028091D3028093D502809181
:102EB000D502843008F0B4C0823008F0FBC088230B
:102EC00009F4C4C0813009F4C5C082E894E00E94CE
:102ED0004B05882309F4B2C384E20E946C089093E6
:102EE000CE028093CD02019661F480E20E94330805
:102EF0008F3F09F07DC38AEC98E09093CE028093D7
:102F0000CD0260E088E10E9474062091CD023091EC
:102F1000CE02253981E1380710F024E931E150E093
:102F200040E02A5F310941095109A5EFB0E00E9454
:102F3000041E2AE930E140E050E00E94E51D8901CD
:102F40009A01065F1F4F2F4F3F4F8091C9028F5F3D
:102F50008A3008F050C38093C902E091C902F0E0C2
:102F6000EE0FFF1FED54FD4F8091C7029091C802F4
:102F700040815181841B950B800F911F9093C80253
:102F80008093C70211830083B6010E949B1E609349
:102F9000CC028091CB0291E089278093CB028823D9
:102FA00009F42CC30E94C10A8091D502882339F00C
:102FB000843049F4809106018350833020F461E02D
:102FC00081E00E9476071092CA028091CA02833083
:102FD00008F034C390910501891731F0933021F046
:102FE000943039F4823028F460E08AEC92E00E9458
:102FF000A1078091CA028F5F8093CA02E6CF90E05A
:1030000080E00E94CB1D8093030181E090E00E944C
:10301000CB1D91E0811101C090E090930801DFCEBB
:10302000843009F052CF10910601183008F04DCFCE
:10303000E12FF0E0E25EF74E0C94AF1EF219531A46
:10304000961AC51AC51AC51AD01AD01A81E00E945C
:10305000EB0E3BCF1BA68BA5843048F46AEACE0169
:103060008B960E94A1078BA58F5F8BA7F4CF60E0A2
:1030700080E00E9476079091D5028091D402981347
:103080000E942A0B80EA94E00E944B05882309F4F1
:103090001CCFE0916302F0E0EB5EFE4F80818E5E1C
:1030A000E091B002F0E0E55EFE4F9081890F0E9452
:1030B000B30E0BCFBEEFFB2EF80E9091D402891702
:1030C00009F445C0AF2CB12C27E1F29E80011124F8
:1030D0000D5A1C4F480149E0840E911CD8011996E5
:1030E0008D919C910E94310440E06CECF801818547
:1030F00092850E94DE03D8014C9164E419968D916B
:103100009C910E94DE03F80184818823E9F0858187
:10311000882309F4CBC080818111C8C00E944F036D
:103120002B013C01D4018D919C910E948003813040
:1031300059F00E944F0364197509860997096E3E7C
:1031400072408105910570F381E080936402809163
:103150006402882309F4B9CE07E10F9DF001112420
:10316000ED5AFC4F818592850E948003813009F0E1
:10317000ACCEF09E800111240D5A1C4F10926402B7
:1031800040E0BE016C5C7F4FC8010E94850A882325
:1031900009F4CBC3AE01455D5F4FBE016C5C7F4F50
:1031A000C8010E947404882309F4BFC36CA570E0B1
:1031B000762F6627770F770F770F2BA5E8E02E9FE6
:1031C00090011124262B372B8CA98031E1F46AA9B8
:1031D0006623C9F070E089A9AB01481B5109CA01F7
:1031E0009695982F8827979587950E949B1ECB01CF
:1031F0008097B90153E0660F771F5A95E1F7607821
:103200009C01260F371F213854EE35070CF48DC36F
:10321000B901330F880B990B0E94AE1C20E030E0FF
:1032200040E05CE30E940D1D4B015C0120E030E0BA
:10323000A9010E94761E18160CF07DC320E030E034
:1032400040E251E4C501B4010E940D1D0E94401EE0
:103250007B018091D502823009F064C082E190E95F
:10326000909366028093650286EFE81684E0F80684
:1032700009F05BC0109268021092670210926A0215
:103280001092690210926C0210926B0210926E0200
:1032900010926D0260E080E00E947607ACE0BDE134
:1032A000B0937002A0936F0280E001CF87E18A9D06
:1032B000F0018B9DF00D1124ED5AFC4FE381E95094
:1032C0008EEE92E0E33038F4F0E0EE0FFF1FE85DA1
:1032D000FE4F808191812C01712C612C87E18A9DA8
:1032E000F0018B9DF00D1124ED5AFC4F8181882354
:1032F00021F060E082810E944B02C301B2010E9472
:103300001C0387E18A9DF0018B9DF00D1124ED5A7D
:10331000FC4F8181882309F417CF61E082810E94EC
:103320004B0212CF86E990E09BCFC70164E670E0C4
:103330000E949B1ECB01B6010E949B1E8C0120E0C7
:1033400030E0A901C501B401011132C00E94761E0E
:1033500087FD2BC086E490E190936A028093690216
:103360001092680210926702C701B6010E949B1E6C
:103370009C01CB01B6010E949B1EFC01EE0FFF1FBA
:10338000EF5DFD4F8591949190936C0280936B0259
:10339000F901EE0FFF1FEF5DFD4F85919491909322
:1033A0006E0280936D0261E076CF84E090E1D4CF2D
:1033B0000E94761E87FD13C086E490E19093680218
:1033C00080936702F801FF27EE0FFF1FEF5DFD4FAF
:1033D0008591949190936A0280936902C5CF84E0AD
:1033E00090E1ECCF84E08093050160E080E00E94F2
:1033F00076072091B1023091B202C901B6010E9454
:10340000871EFC01EE0FFF1FEF5DFD4F45915491AC
:103410005093700240936F02CB01B6010E94871E49
:10342000FC01EE0FFF1FEF5DFD4F8591949190938E
:103430006E0280936D02C90164E670E00E94871EEF
:10344000CB01B6010E94871EFC01EE0FFF1FEF5D4E
:10345000FD4F8591949190936C0280936B02C9010A
:1034600068EE73E00E94871ECB01B6010E94871EA2
:10347000FC01EE0FFF1FEF5DFD4F8591949190933E
:103480006A02809369021092680210926702E8E172
:10349000F9E0F0936602E09365026FEF7FEF80E062
:1034A0000E94070E12CD83E08093050160E080E06A
:1034B0000E9476076091B0026150770B54E0660F6E
:1034C000771F5A95E1F76F597E4F40E150E085E64E
:1034D00092E00E94A31CE091B002E150EB30E8F6CC
:1034E000F0E0EB58F54E0C94AF1E801A4D1A851A79
:1034F000801A8A1A911A911A4D1A4D1A4D1A801A69
:103500003092700220926F02C8CF10926E02109219
:103510006D02C3CF49E156E850936A0240936902B5
:10352000BCCF30926C0220926B02B7CF1092050193
:1035300060E080E00E94760748E050E065E472E0D9
:1035400085E692E00E94A31C8091AF022AE0622FE0
:103550000E947B1EE92FF0E0EE0FFF1FEF5DFD4F95
:10356000459154915093700240936F020E947B1ECC
:10357000E92FF0E0EE0FFF1FEF5DFD4F8591949175
:1035800090936E0280936D0288CF81E08093040156
:1035900085E0811B809305010E94190780E057CDCB
:1035A00084E08093050160E081E00E94760761E598
:1035B00072E0163011F06DE472E044E050E085E610
:1035C00092E00E94A31C60910301163011F06091FB
:1035D000080170E023E0660F771F2A95E1F76B5C26
:1035E0007D4F48E050E089E692E00E94A31C55CF51
:1035F00084E991E182CC1092C902AFCC1092CA0248
:103600008091CA02843058F46AEA8AEC92E00E94FF
:10361000A1078091CA028F5F8093CA02F1CF809187
:10362000D502882339F0843069F4809106018350F3
:10363000833020F460E080E00E9476078091D5021C
:10364000843001F180910801882349F185E594E0F7
:103650000E944B058823B1F08091D202209107018E
:1036600030E08F5F84300CF081E0A901082E02C0A9
:10367000559547950A94E2F740FFF3CF8093D20225
:103680000E947B0B8091D502843049F48091D50251
:10369000813069F48091E402811107C008C08FEA8B
:1036A00094E00E944B05882389F31092D302809105
:1036B000D502843029F183E794E00E944B058823EA
:1036C000D9F086E20E946C088C0180E20E943308E7
:1036D00087FDABC01093D1020093D00260E088E177
:1036E0000E9474068091D0029091D102853492405C
:1036F00008F0A2C01092CF028091D502843039F434
:1037000084E694E00E944B0581110E94910B0E9477
:103710004F030091CA031091CB032091CC03309149
:10372000CD03601B710B820B930B65317105810515
:10373000910508F4B0CB0E944F036093CA037093C5
:10374000CB038093CC039093CD038091D00388303A
:1037500008F08E50806480937C0080917A008064B1
:1037600080937A0080917A0086FDFCCF40917800AA
:1037700050917900A091D1038091CF0390E0E4ECC7
:10378000F3E0F12CE12CEA1608F0B7C02685378566
:10379000B901681B790B461757070CF4A9C0280F0D
:1037A000391F2417350708F4A3C08DE08E9D8001D2
:1037B0008F9D100D1124F801EE52FC4F5F01809097
:1037C0003A0490903B040C531C4F8E169F0609F44C
:1037D0003FC0D80156961C9280913C0490913D04C4
:1037E000E817F90731F01092CE03F0933D04E0930F
:1037F0003C048091CE038F5F8093CE032091C80359
:103800003091C9038217130608F445CBB0923B04EC
:10381000A0923A040E944F036093C4037093C503BF
:103820008093C6039093C70336CB8AEF90E09093C2
:10383000D1028093D00252CF8091CF02811104C077
:103840000E94770C0E941D0281E08093CF0254CF2A
:10385000F8018689811121C00E944F034090C40362
:103860005090C5036090C6037090C7036419750932
:1038700086099709D80150964D905D906D907C9087
:103880005397461657066806790638F481E056962F
:103890008C93C4010E945B03BDCF8DE08E9D80019F
:1038A0008F9D100D11240C531C4FF801868988231D
:1038B00009F4F1CA0E944F034090C4035090C5031D
:1038C0006090C6037090C703AB01BC014419550951
:1038D00066097709D80154968D919C91B0E0A0E0DB
:1038E00084179507A607B70708F0D5CAC501D2CF38
:1038F000BFEFEB1AFB0A3D9646CFE0913A04F091F8
:103900003B04309749F08085811106C00184F2851F
:10391000E02D309709F0099510923B0410923A047B
:1039200010923D0410923C04B6CA812C912C8EEF6B
:10393000A82E82ECB82E20E030E040E251E4C50130
:10394000B401905881CCFB01DC0102C005900D92BE
:1039500041505040D8F70895E89409C097FB3EF4D1
:1039600090958095709561957F4F8F4F9F4F9923CC
:10397000A9F0F92F96E9BB279395F695879577954A
:103980006795B795F111F8CFFAF4BB0F11F460FF0A
:103990001BC06F5F7F4F8F4F9F4F16C0882311F062
:1039A00096E911C0772321F09EE8872F762F05C076
:1039B000662371F096E8862F70E060E02AF09A9511
:1039C000660F771F881FDAF7880F9695879597F906
:1039D0000895990F0008550FAA0BE0E8FEEF1616A0
:1039E0001706E807F907C0F012161306E407F507F3
:1039F00098F0621B730B840B950B39F40A2661F067
:103A0000232B242B252B21F408950A2609F4A14009
:103A1000A6958FEF811D811D08950E94201D0C9495
:103A2000911D0E94831D38F00E948A1D20F095236D
:103A300011F00C947A1D0C94801D11240C94C51D5A
:103A40000E94A21D70F3959FC1F3950F50E0551F82
:103A5000629FF001729FBB27F00DB11D639FAA27E3
:103A6000F00DB11DAA1F649F6627B00DA11D661F32
:103A7000829F2227B00DA11D621F739FB00DA11D53
:103A8000621F839FA00D611D221F749F3327A00D0D
:103A9000611D231F849F600D211D822F762F6A2FA9
:103AA00011249F5750409AF0F1F088234AF0EE0F0E
:103AB000FF1FBB1F661F771F881F91505040A9F73B
:103AC0009E3F510580F00C947A1D0C94C51D5F3FFC
:103AD000E4F3983ED4F3869577956795B795F79577
:103AE000E7959F5FC1F7FE2B880F911D96958795EF
:103AF00097F9089597F99F6780E870E060E008956E
:103B00009FEF80EC089500240A94161617061806F5
:103B10000906089500240A941216130614060506D1
:103B20000895092E0394000C11F4882352F0BB0F62
:103B300040F4BF2B11F460FF04C06F5F7F4F8F4FC5
:103B40009F4F089557FD9058440F551F59F05F3F00
:103B500071F04795880F97FB991F61F09F3F79F0AF
:103B600087950895121613061406551FF2CF469531
:103B7000F1DF08C0161617061806991FF1CF8695B3
:103B80007105610508940895E894BB276627772797
:103B9000CB0197F90895F999FECF92BD81BDF89AAE
:103BA000992780B50895262FF999FECF92BD81BD42
:103BB000F89A019700B4021639F01FBA20BD0FB66B
:103BC000F894FA9AF99A0FBE0895052E97FB1EF401
:103BD00000940E94FC1D57FD07D00E940F1E07FC99
:103BE00003D04EF40C94FC1D5095409530952195D2
:103BF0003F4F4F4F5F4F0895909580957095619519
:103C00007F4F8F4F9F4F08950E94311EA59F900DAB
:103C1000B49F900DA49F800D911D11240895A1E2E1
:103C20001A2EAA1BBB1BFD010DC0AA1FBB1FEE1F36
:103C3000FF1FA217B307E407F50720F0A21BB30B81
:103C4000E40BF50B661F771F881F991F1A9469F7FD
:103C500060957095809590959B01AC01BD01CF0159
:103C60000895A29FB001B39FC001A39F700D811D55
:103C70001124911DB29F700D811D1124911D089575
:103C80000E94471E6894B1110C94C51D08950E94AE
:103C9000AA1D88F09F5798F0B92F9927B751B0F017
:103CA000E1F0660F771F881F991F1AF0BA95C9F7C0
:103CB00014C0B13091F00E94C41DB1E008950C947D
:103CC000C41D672F782F8827B85F39F0B93FCCF330
:103CD000869577956795B395D9F73EF4909580953D
:103CE000709561957F4F8F4F9F4F08950E94E91CFB
:103CF00008F48FEF0895991B79E004C0991F961777
:103D000008F0961B881F7A95C9F780950895AA1B1D
:103D1000BB1B51E107C0AA1FBB1FA617B70710F0B6
:103D2000A61BB70B881F991F5A95A9F780959095E8
:103D3000BC01CD01089597FB072E16F4009407D01F
:103D400077FD09D00E94871E07FC05D03EF49095B0
:103D500081959F4F0895709561957F4F0895EE0F5F
:103D6000FF1F0590F491E02D09940F931F93CF93BB
:103D7000DF938230910510F482E090E0E091F2044C
:103D8000F091F30430E020E0B0E0A0E0309799F447
:103D90002115310509F44AC0281B390B243031059F
:103DA000D8F58A819B816115710589F1FB019383A7
:103DB0008283FE0111C04081518102811381481725
:103DC0005907E0F04817590799F4109761F01296D7
:103DD0000C93129713961C933296CF01DF91CF91DB
:103DE0001F910F9108950093F2041093F304F4CF00
:103DF0002115310551F04217530738F0A901DB01B5
:103E00009A01BD01DF01F801C1CFEF01F9CF909315
:103E1000F3048093F204CDCFFE01E20FF31F8193F0
:103E200091932250310939832883D7CF2091F00410
:103E30003091F104232B41F420910B0130910C01BE
:103E40003093F1042093F0042091090130910A018C
:103E50002115310541F42DB73EB740910D01509128
:103E60000E01241B350BE091F004F091F104E217F0
:103E7000F307A0F42E1B3F0B2817390778F0AC018D
:103E80004E5F5F4F2417350748F04E0F5F1F50936A
:103E9000F1044093F004819391939FCFF0E0E0E030
:103EA0009CCFCF93DF930097E9F0FC013297138208
:103EB0001282A091F204B091F304ED0130E020E011
:103EC0001097A1F420813181820F931F2091F0047B
:103ED0003091F1042817390709F061C0F093F1041B
:103EE000E093F004DF91CF910895EA01CE17DF0748
:103EF000E8F54A815B819E0141155105B1F7E90161
:103F0000FB83EA8349915991C40FD51FEC17FD0734
:103F100061F4808191810296840F951FE901998354
:103F20008883828193819B838A83F0E0E0E012960C
:103F30008D919C9113970097B9F52D913C91119714
:103F4000CD010296820F931F2091F0043091F1046D
:103F50002817390739F6309751F51092F30410926B
:103F6000F204B093F104A093F004BCCFD383C283D6
:103F700040815181840F951FC817D90761F44E5FA6
:103F80005F4F88819981480F591F518340838A81EF
:103F90009B81938382832115310509F0B0CFF09383
:103FA000F304E093F2049ECFFD01DC01C0CF138245
:103FB0001282D7CFFB01DC0102C001900D9241506B
:0A3FC0005040D8F70895F894FFCFA1
:103FCA000A013B02010507C0010000F40480000059
:103FDA00000000C6060B0B070507070706070506BC
:103FEA0003040407080706075E00BC007701000007
:103FFA00000042061506ED06EB050E06FB05EC056C
:00000001FF
